{
  "contractName": "BookManagement",
  "abi": [
    {
      "inputs": [],
      "name": "bookCount",
      "outputs": [
        {
          "internalType": "uint256",
          "name": "",
          "type": "uint256"
        }
      ],
      "stateMutability": "view",
      "type": "function",
      "constant": true
    },
    {
      "inputs": [
        {
          "internalType": "uint256",
          "name": "",
          "type": "uint256"
        }
      ],
      "name": "books",
      "outputs": [
        {
          "internalType": "string",
          "name": "title",
          "type": "string"
        },
        {
          "internalType": "string",
          "name": "author",
          "type": "string"
        },
        {
          "internalType": "uint256",
          "name": "year",
          "type": "uint256"
        }
      ],
      "stateMutability": "view",
      "type": "function",
      "constant": true
    },
    {
      "inputs": [
        {
          "internalType": "string",
          "name": "_title",
          "type": "string"
        },
        {
          "internalType": "string",
          "name": "_author",
          "type": "string"
        },
        {
          "internalType": "uint256",
          "name": "_year",
          "type": "uint256"
        }
      ],
      "name": "addBook",
      "outputs": [],
      "stateMutability": "nonpayable",
      "type": "function"
    },
    {
      "inputs": [
        {
          "internalType": "uint256",
          "name": "_index",
          "type": "uint256"
        }
      ],
      "name": "getBook",
      "outputs": [
        {
          "internalType": "string",
          "name": "",
          "type": "string"
        },
        {
          "internalType": "string",
          "name": "",
          "type": "string"
        },
        {
          "internalType": "uint256",
          "name": "",
          "type": "uint256"
        }
      ],
      "stateMutability": "view",
      "type": "function",
      "constant": true
    },
    {
      "inputs": [
        {
          "internalType": "uint256",
          "name": "_index",
          "type": "uint256"
        }
      ],
      "name": "deleteBook",
      "outputs": [],
      "stateMutability": "nonpayable",
      "type": "function"
    }
  ],
  "bytecode": "0x608060405234801561001057600080fd5b50610f44806100206000396000f3fe608060405234801561001057600080fd5b50600436106100575760003560e01c8063042662241461005c5780632151fb38146100785780636874404614610094578063b905ad78146100c6578063e0ff5b8b146100e4575b600080fd5b610076600480360381019061007191906107e0565b610116565b005b610092600480360381019061008d919061086b565b61019b565b005b6100ae60048036038101906100a9919061086b565b6102fe565b6040516100bd93929190610926565b60405180910390f35b6100ce610438565b6040516100db919061096b565b60405180910390f35b6100fe60048036038101906100f9919061086b565b61043e565b60405161010d93929190610926565b60405180910390f35b6040518060600160405280848152602001838152602001828152506000806001548152602001908152602001600020600082015181600001908161015a9190610b92565b5060208201518160010190816101709190610b92565b50604082015181600201559050506001600081548092919061019190610c93565b9190505550505050565b60015481106101df576040517f08c379a00000000000000000000000000000000000000000000000000000000081526004016101d690610d27565b60405180910390fd5b6000808281526020019081526020016000206000808201600061020291906105f3565b60018201600061021291906105f3565b600282016000905550506001805461022a9190610d47565b81146102e357600080600180546102419190610d47565b8152602001908152602001600020600080838152602001908152602001600020600082018160000190816102759190610d91565b506001820181600101908161028a9190610d91565b5060028201548160020155905050600080600180546102a99190610d47565b8152602001908152602001600020600080820160006102c891906105f3565b6001820160006102d891906105f3565b600282016000905550505b600160008154809291906102f690610e79565b919050555050565b6000602052806000526040600020600091509050806000018054610321906109b5565b80601f016020809104026020016040519081016040528092919081815260200182805461034d906109b5565b801561039a5780601f1061036f5761010080835404028352916020019161039a565b820191906000526020600020905b81548152906001019060200180831161037d57829003601f168201915b5050505050908060010180546103af906109b5565b80601f01602080910402602001604051908101604052809291908181526020018280546103db906109b5565b80156104285780601f106103fd57610100808354040283529160200191610428565b820191906000526020600020905b81548152906001019060200180831161040b57829003601f168201915b5050505050908060020154905083565b60015481565b60608060006001548410610487576040517f08c379a000000000000000000000000000000000000000000000000000000000815260040161047e90610eee565b60405180910390fd5b60008060008681526020019081526020016000206040518060600160405290816000820180546104b6906109b5565b80601f01602080910402602001604051908101604052809291908181526020018280546104e2906109b5565b801561052f5780601f106105045761010080835404028352916020019161052f565b820191906000526020600020905b81548152906001019060200180831161051257829003601f168201915b50505050508152602001600182018054610548906109b5565b80601f0160208091040260200160405190810160405280929190818152602001828054610574906109b5565b80156105c15780601f10610596576101008083540402835291602001916105c1565b820191906000526020600020905b8154815290600101906020018083116105a457829003601f168201915b505050505081526020016002820154815250509050806000015181602001518260400151935093509350509193909250565b5080546105ff906109b5565b6000825580601f106106115750610630565b601f01602090049060005260206000209081019061062f9190610633565b5b50565b5b8082111561064c576000816000905550600101610634565b5090565b6000604051905090565b600080fd5b600080fd5b600080fd5b600080fd5b6000601f19601f8301169050919050565b7f4e487b7100000000000000000000000000000000000000000000000000000000600052604160045260246000fd5b6106b78261066e565b810181811067ffffffffffffffff821117156106d6576106d561067f565b5b80604052505050565b60006106e9610650565b90506106f582826106ae565b919050565b600067ffffffffffffffff8211156107155761071461067f565b5b61071e8261066e565b9050602081019050919050565b82818337600083830152505050565b600061074d610748846106fa565b6106df565b90508281526020810184848401111561076957610768610669565b5b61077484828561072b565b509392505050565b600082601f83011261079157610790610664565b5b81356107a184826020860161073a565b91505092915050565b6000819050919050565b6107bd816107aa565b81146107c857600080fd5b50565b6000813590506107da816107b4565b92915050565b6000806000606084860312156107f9576107f861065a565b5b600084013567ffffffffffffffff8111156108175761081661065f565b5b6108238682870161077c565b935050602084013567ffffffffffffffff8111156108445761084361065f565b5b6108508682870161077c565b9250506040610861868287016107cb565b9150509250925092565b6000602082840312156108815761088061065a565b5b600061088f848285016107cb565b91505092915050565b600081519050919050565b600082825260208201905092915050565b60005b838110156108d25780820151818401526020810190506108b7565b60008484015250505050565b60006108e982610898565b6108f381856108a3565b93506109038185602086016108b4565b61090c8161066e565b840191505092915050565b610920816107aa565b82525050565b6000606082019050818103600083015261094081866108de565b9050818103602083015261095481856108de565b90506109636040830184610917565b949350505050565b60006020820190506109806000830184610917565b92915050565b7f4e487b7100000000000000000000000000000000000000000000000000000000600052602260045260246000fd5b600060028204905060018216806109cd57607f821691505b6020821081036109e0576109df610986565b5b50919050565b60008190508160005260206000209050919050565b60006020601f8301049050919050565b600082821b905092915050565b600060088302610a487fffffffffffffffffffffffffffffffffffffffffffffffffffffffffffffffff82610a0b565b610a528683610a0b565b95508019841693508086168417925050509392505050565b6000819050919050565b6000610a8f610a8a610a85846107aa565b610a6a565b6107aa565b9050919050565b6000819050919050565b610aa983610a74565b610abd610ab582610a96565b848454610a18565b825550505050565b600090565b610ad2610ac5565b610add818484610aa0565b505050565b5b81811015610b0157610af6600082610aca565b600181019050610ae3565b5050565b601f821115610b4657610b17816109e6565b610b20846109fb565b81016020851015610b2f578190505b610b43610b3b856109fb565b830182610ae2565b50505b505050565b600082821c905092915050565b6000610b6960001984600802610b4b565b1980831691505092915050565b6000610b828383610b58565b9150826002028217905092915050565b610b9b82610898565b67ffffffffffffffff811115610bb457610bb361067f565b5b610bbe82546109b5565b610bc9828285610b05565b600060209050601f831160018114610bfc5760008415610bea578287015190505b610bf48582610b76565b865550610c5c565b601f198416610c0a866109e6565b60005b82811015610c3257848901518255600182019150602085019450602081019050610c0d565b86831015610c4f5784890151610c4b601f891682610b58565b8355505b6001600288020188555050505b505050505050565b7f4e487b7100000000000000000000000000000000000000000000000000000000600052601160045260246000fd5b6000610c9e826107aa565b91507fffffffffffffffffffffffffffffffffffffffffffffffffffffffffffffffff8203610cd057610ccf610c64565b5b600182019050919050565b7f496e76616c696420696e6465782e000000000000000000000000000000000000600082015250565b6000610d11600e836108a3565b9150610d1c82610cdb565b602082019050919050565b60006020820190508181036000830152610d4081610d04565b9050919050565b6000610d52826107aa565b9150610d5d836107aa565b9250828203905081811115610d7557610d74610c64565b5b92915050565b600081549050610d8a816109b5565b9050919050565b818103610d9f575050610e77565b610da882610d7b565b67ffffffffffffffff811115610dc157610dc061067f565b5b610dcb82546109b5565b610dd6828285610b05565b6000601f831160018114610e055760008415610df3578287015490505b610dfd8582610b76565b865550610e70565b601f198416610e13876109e6565b9650610e1e866109e6565b60005b82811015610e4657848901548255600182019150600185019450602081019050610e21565b86831015610e635784890154610e5f601f891682610b58565b8355505b6001600288020188555050505b5050505050505b565b6000610e84826107aa565b915060008203610e9757610e96610c64565b5b600182039050919050565b7f426f6f6b20646f6573206e6f742065786973742e000000000000000000000000600082015250565b6000610ed86014836108a3565b9150610ee382610ea2565b602082019050919050565b60006020820190508181036000830152610f0781610ecb565b905091905056fea2646970667358221220c0c76403487283a536c69346e972eb4bc706c883a15562cf60d5c6ce0790b6cf64736f6c63430008130033",
  "immutableReferences": {},
  "source": "// SPDX-License-Identifier: MIT\npragma solidity ^0.8.0;\n\ncontract BookManagement {\n    struct Book {\n        string title;\n        string author;\n        uint256 year;\n    }\n\n    mapping(uint256 => Book) public books;\n    uint256 public bookCount;\n\n    function addBook(string memory _title, string memory _author, uint256 _year) public {\n        books[bookCount] = Book(_title, _author, _year);\n        bookCount++;\n    }\n\n    function getBook(uint256 _index) public view returns (string memory, string memory, uint256) {\n        require(_index < bookCount, \"Book does not exist.\");\n        Book memory book = books[_index];\n        return (book.title, book.author, book.year);\n    }\n\n    function deleteBook(uint256 _index) public {\n        require(_index < bookCount, \"Invalid index.\");\n\n        // Directly delete the book entry\n        delete books[_index];\n\n        // Optional: If you want to keep all books contiguous without gaps:\n        // This will effectively move the last book to the deleted slot and decrease the count\n        if (_index != bookCount - 1) {\n            books[_index] = books[bookCount - 1];\n            delete books[bookCount - 1];\n        }\n        bookCount--;\n    }\n}\n",
  "sourcePath": "/home/thug/assignment/contracts/contracts/BookManagement.sol",
  "compiler": {
    "name": "solc",
    "version": "0.8.19+commit.7dd6d404.Emscripten.clang"
  },
  "schemaVersion": "3.4.16",
  "updatedAt": "2024-04-28T08:52:45.365Z",
  "networkType": "ethereum",
  "devdoc": {
    "kind": "dev",
    "methods": {},
    "version": 1
  },
  "userdoc": {
    "kind": "user",
    "methods": {},
    "version": 1
  }
}